{
  "_format": "hh-sol-artifact-1",
  "contractName": "Assessment",
  "sourceName": "contracts/Assessment.sol",
  "abi": [
    {
      "inputs": [
        {
          "internalType": "uint256",
          "name": "initBalance",
          "type": "uint256"
        }
      ],
      "stateMutability": "payable",
      "type": "constructor"
    },
    {
      "inputs": [
        {
          "internalType": "uint256",
          "name": "balance",
          "type": "uint256"
        },
        {
          "internalType": "uint256",
          "name": "withdrawAmount",
          "type": "uint256"
        }
      ],
      "name": "InsufficientBalance",
      "type": "error"
    },
    {
      "anonymous": false,
      "inputs": [
        {
          "indexed": false,
          "internalType": "uint256",
          "name": "amount",
          "type": "uint256"
        }
      ],
      "name": "Deposit",
      "type": "event"
    },
    {
      "anonymous": false,
      "inputs": [
        {
          "indexed": true,
          "internalType": "address",
          "name": "to",
          "type": "address"
        },
        {
          "indexed": false,
          "internalType": "uint256",
          "name": "amount",
          "type": "uint256"
        }
      ],
      "name": "Transfer",
      "type": "event"
    },
    {
      "anonymous": false,
      "inputs": [
        {
          "indexed": false,
          "internalType": "uint256",
          "name": "amount",
          "type": "uint256"
        }
      ],
      "name": "Withdraw",
      "type": "event"
    },
    {
      "inputs": [],
      "name": "balance",
      "outputs": [
        {
          "internalType": "uint256",
          "name": "",
          "type": "uint256"
        }
      ],
      "stateMutability": "view",
      "type": "function"
    },
    {
      "inputs": [
        {
          "internalType": "uint256",
          "name": "_amount",
          "type": "uint256"
        }
      ],
      "name": "deposit",
      "outputs": [],
      "stateMutability": "payable",
      "type": "function"
    },
    {
      "inputs": [],
      "name": "getBalance",
      "outputs": [
        {
          "internalType": "uint256",
          "name": "",
          "type": "uint256"
        }
      ],
      "stateMutability": "view",
      "type": "function"
    },
    {
      "inputs": [],
      "name": "owner",
      "outputs": [
        {
          "internalType": "address payable",
          "name": "",
          "type": "address"
        }
      ],
      "stateMutability": "view",
      "type": "function"
    },
    {
      "inputs": [
        {
          "internalType": "address payable",
          "name": "_to",
          "type": "address"
        },
        {
          "internalType": "uint256",
          "name": "_amount",
          "type": "uint256"
        }
      ],
      "name": "transfer",
      "outputs": [],
      "stateMutability": "nonpayable",
      "type": "function"
    },
    {
      "inputs": [
        {
          "internalType": "uint256",
          "name": "_withdrawAmount",
          "type": "uint256"
        }
      ],
      "name": "withdraw",
      "outputs": [],
      "stateMutability": "nonpayable",
      "type": "function"
    }
  ],
  "bytecode": "0x6080604052604051610794380380610794833981810160405281019061002591906100ad565b336000806101000a81548173ffffffffffffffffffffffffffffffffffffffff021916908373ffffffffffffffffffffffffffffffffffffffff16021790555080600181905550506100da565b600080fd5b6000819050919050565b61008a81610077565b811461009557600080fd5b50565b6000815190506100a781610081565b92915050565b6000602082840312156100c3576100c2610072565b5b60006100d184828501610098565b91505092915050565b6106ab806100e96000396000f3fe6080604052600436106100555760003560e01c806312065fe01461005a5780632e1a7d4d146100855780638da5cb5b146100ae578063a9059cbb146100d9578063b69ef8a814610102578063b6b55f251461012d575b600080fd5b34801561006657600080fd5b5061006f610149565b60405161007c91906103c8565b60405180910390f35b34801561009157600080fd5b506100ac60048036038101906100a79190610414565b610153565b005b3480156100ba57600080fd5b506100c3610216565b6040516100d09190610482565b60405180910390f35b3480156100e557600080fd5b5061010060048036038101906100fb91906104c9565b61023a565b005b34801561010e57600080fd5b50610117610331565b60405161012491906103c8565b60405180910390f35b61014760048036038101906101429190610414565b610337565b005b6000600154905090565b600060015490508160015410156101a557600154826040517fcf47918100000000000000000000000000000000000000000000000000000000815260040161019c929190610509565b60405180910390fd5b81600160008282546101b79190610561565b9250508190555081816101ca9190610561565b600154146101db576101da610595565b5b7f5b6b431d4476a211bb7d41c20d1aab9ae2321deee0d20be3d9fc9b1093fa6e3d8260405161020a91906103c8565b60405180910390a15050565b60008054906101000a900473ffffffffffffffffffffffffffffffffffffffff1681565b80600154101561027f576040517f08c379a000000000000000000000000000000000000000000000000000000000815260040161027690610621565b60405180910390fd5b80600160008282546102919190610561565b925050819055508173ffffffffffffffffffffffffffffffffffffffff166108fc829081150290604051600060405180830381858888f193505050501580156102de573d6000803e3d6000fd5b508173ffffffffffffffffffffffffffffffffffffffff167f69ca02dd4edd7bf0a4abb9ed3b7af3f14778db5d61921c7dc7cd545266326de28260405161032591906103c8565b60405180910390a25050565b60015481565b6000600154905081600160008282546103509190610641565b9250508190555081816103639190610641565b6001541461037457610373610595565b5b7f4d6ce1e535dbade1c23defba91e23b8f791ce5edc0cc320257a2b364e4e38426826040516103a391906103c8565b60405180910390a15050565b6000819050919050565b6103c2816103af565b82525050565b60006020820190506103dd60008301846103b9565b92915050565b600080fd5b6103f1816103af565b81146103fc57600080fd5b50565b60008135905061040e816103e8565b92915050565b60006020828403121561042a576104296103e3565b5b6000610438848285016103ff565b91505092915050565b600073ffffffffffffffffffffffffffffffffffffffff82169050919050565b600061046c82610441565b9050919050565b61047c81610461565b82525050565b60006020820190506104976000830184610473565b92915050565b6104a681610461565b81146104b157600080fd5b50565b6000813590506104c38161049d565b92915050565b600080604083850312156104e0576104df6103e3565b5b60006104ee858286016104b4565b92505060206104ff858286016103ff565b9150509250929050565b600060408201905061051e60008301856103b9565b61052b60208301846103b9565b9392505050565b7f4e487b7100000000000000000000000000000000000000000000000000000000600052601160045260246000fd5b600061056c826103af565b9150610577836103af565b925082820390508181111561058f5761058e610532565b5b92915050565b7f4e487b7100000000000000000000000000000000000000000000000000000000600052600160045260246000fd5b600082825260208201905092915050565b7f496e73756666696369656e742062616c616e6365000000000000000000000000600082015250565b600061060b6014836105c4565b9150610616826105d5565b602082019050919050565b6000602082019050818103600083015261063a816105fe565b9050919050565b600061064c826103af565b9150610657836103af565b925082820190508082111561066f5761066e610532565b5b9291505056fea26469706673582212205bedeafbfea81f694d22dfa955d599ababf6ebd374b9ce4a0676e8c2085396b964736f6c63430008110033",
  "linkReferences": {},
  "deployedLinkReferences": {}
}